:020000040800F2
:1000000048AF00209D010008F54E00087545000826
:10001000F14E0008090D00083B7F000800000000B9
:100020000000000000000000000000004F58000821
:10003000DD1000080000000023500008155E0008D5
:10004000B7010008B7010008B7010008B7010008B0
:10005000B7010008B7010008B7010008B7010008A0
:10006000B7010008B7010008B7010008B701000890
:10007000B7010008B7010008B7010008B701000880
:10008000B7010008B7010008B7010008B701000870
:10009000B7010008B7010008B7010008E91000081F
:1000A000B7010008B7010008B7010008355F000874
:1000B000B7010008455F0008B7010008B701000854
:1000C000B7010008B7010008B7010008B701000830
:1000D000B7010008B7010008B7010008B701000820
:1000E000B7010008B7010008B7010008B701000810
:1000F000B7010008B7010008B7010008B701000800
:10010000B7010008B7010008B7010008B7010008EF
:10011000B7010008B7010008B7010008B7010008DF
:10012000B7010008B7010008B7010008B7010008CF
:10013000B7010008B7010008B7010008B7010008BF
:10014000B7010008B7010008B7010008314F0008E7
:10015000B7010008B7010008B7010008B70100089F
:10016000B7010008B7010008B7010008B70100088F
:10017000B7010008B7010008B7010008000000003F
:10018000B7010008B7010008DFF80CD000F080F8D4
:1001900000480047B58E000848AF00200648804759
:1001A00006480047FEE7FEE7FEE7FEE7FEE7FEE75C
:1001B000FEE7FEE7FEE7FEE7E55E000889010008CE
:1001C00010B540EA01040346A40703D009E010C9B2
:1001D000121F10C3042AFAD203E011F8014B03F8EE
:1001E000014B521EF9D210BDD2B201E000F8012B32
:1001F000491EFBD270470022F6E710B513460A46A7
:1002000004461946FFF7F0FF204610BD30B50446FE
:100210000020034600E05B1C934203D2E05CCD5C0F
:10022000401BF8D030BD2DE9F05F05460020924616
:100230009B4688460646814640241BE028464146A8
:100240004746224600F045F853465A46C01A9141A7
:1002500010D311461846224600F02CF82D1A67EBF1
:1002600001084F4622460120002100F023F817EB39
:1002700000094E41201EA4F10104DFDC484631464E
:100280002A46434600F000B830BCBDE8C09F0000DD
:10029000064C074D06E0E06840F0010394E80700D3
:1002A00098471034AC42F6D3FFF772FFAC950008C4
:1002B000CC950008202A04DB203A00FA02F1002045
:1002C00070479140C2F1200320FA03F31943904094
:1002D0007047202A04DB203A21FA02F000217047FF
:1002E00021FA02F3D040C2F120029140084319469E
:1002F000704770B58C1810F8015B15F0070301D139
:1003000010F8013B2A1106D110F8012B03E010F878
:10031000016B01F8016B5B1EF9D12B0705D400239B
:10032000521E0DD401F8013BFAE710F8013BCB1A3D
:10033000921C03E013F8015B01F8015B521EF9D532
:10034000A142D8D3002070BD10B58AB01B208DF813
:100350001800C5208DF81900D5208DF81A00A520A9
:100360008DF81B0002208DF81C0000208DF81D0068
:10037000B4208DF81E009A208DF81F00E1208DF822
:10038000200011208DF821000F208DF82200002080
:100390008DF823008DF824008DF825008DF82600B7
:1003A0008DF8270029480423012206A90090022085
:1003B00008F058F9044604B146E01B208DF81800F7
:1003C000C5208DF81900D5208DF81A00A5208DF8CC
:1003D0001B0002208DF81C0000208DF81D00362027
:1003E0008DF81E00AC208DF81F00E1208DF8200054
:1003F00011208DF821000F208DF8220000208DF8AB
:10040000230002208DF8240000208DF825008DF8AF
:1004100026008DF827000E48012110220523CDE982
:100420000232CDE90410002014210B4606AACDE9C2
:10043000001002210548008808F0A1F8044604B124
:1004400002E000200AB010BD4720FBE73400002086
:100450003600002030B58BB004251B208DF81C0021
:10046000C5208DF81D00D5208DF81E00A5208DF823
:100470001F0002208DF8200000208DF82100B420FC
:100480008DF822009A208DF82300E1208DF82400B9
:1004900011208DF8250001208DF8260000208DF810
:1004A00027008DF828008DF829008DF82A008DF896
:1004B0002B006948009005EB4500431C012207A969
:1004C000022008F0CFF8044604B1C3E01B208DF8E9
:1004D0001C00C5208DF81D00D5208DF81E00A5201C
:1004E0008DF81F0002208DF8200000208DF82100DB
:1004F00036208DF82200AC208DF82300E1208DF805
:10050000240011208DF8250001208DF82600002000
:100510008DF827008DF828008DF829008DF82A0025
:100520008DF82B004D48806802280BD19DF82A00D9
:1005300040F005008DF82A0049480078001D484920
:1005400008700EE04548806801280AD19DF82A000D
:1005500040F004008DF82A0041480078801C404992
:1005600008703E48806950B19DF82A0040F00800AC
:100570008DF82A003A480078801C394908703748BD
:10058000406950B19DF82A0040F010008DF82A0013
:1005900033480078001D324908703248002110228B
:1005A0000423CDE90232CDE9041008461221CDE939
:1005B00000102B48037807AA02212748008807F07B
:1005C000DEFF044604B145E01B208DF81C00C52069
:1005D0008DF81D00D5208DF81E00A5208DF81F0078
:1005E00002208DF8200000208DF8210036208DF8A3
:1005F0002200AC208DF82300E1208DF8240011208A
:100600008DF8250001208DF8260000208DF82700A8
:100610008DF828008DF829008DF82A0020208DF80B
:100620002B001148002110220423CDE90232CDE92C
:10063000041008461221032307AACDE90010022165
:100640000548008807F09BFF044604B102E0002043
:100650000BB030BD4720FBE72E0000206C030020CC
:10066000400000203000002032000020F0B5C1B072
:1006700005460C46164681480088801C854246D0B7
:100680007F480088801C854255D12078012816D1EA
:100690007C48006840F001007A49086000217A48EF
:1006A00003F050FD08B100F0C9FD77490968486AB8
:1006B00041F288310144744A126851630EE0207897
:1006C00060B97048006820F001006E4908600021A0
:1006D0006D4803F095FD08B100F0B0FD6948008851
:1006E000C0F30020A0B16748007800F0010008B115
:1006F00066A000E066A0024666A16A4807F020FCFA
:100700006949086008460178664805F057FEB2E07E
:100710005C48007800F0010008B15CA000E05CA03B
:1007200002465CA101A807F00BFC0746394601A868
:1007300000F0ECFA9FE05D480088801C854213D1F0
:100740002078012806D14F48006840F400704D49D8
:10075000086090E020780028D9D14A48006820F449
:1007600000704849086086E051480088801C854236
:1007700013D12078012806D14248006840F48070E7
:100780004049086077E02078002874D13D4800682F
:1007900020F480703B4908606DE046480088801C6A
:1007A000854243D1207801280BD13648006840F0BB
:1007B000020034490860404991F82C0004F02AFBFB
:1007C00007E0207828B92F48006820F002002D4962
:1007D00008602C480088C0F30020A0B129480078A8
:1007E000C0F3400008B129A000E029A0024633A1CF
:1007F0002C4807F0A5FB2C490860084601782948D9
:1008000005F0DCFD37E01F480078C0F3400008B178
:100810001EA000E01EA0024628A101A807F090FB40
:100820000746394601A800F071FA24E01348008811
:10083000401C854204D13146204600F067FB1AE097
:1008400010480088C0F3402058B120A1154807F097
:1008500077FB1549086008460178124805F088FAC8
:1008600009E01AA101A807F06BFB0746394601A869
:1008700000F04CFA00BF41B0F0BD0000360000208F
:100880003000002000000020080300204F4E000030
:100890004F4646002D2D2D3E456E763D25730D0AA3
:1008A0000000000008020020040000203C0000209E
:1008B0003A000020320000206C0300202D2D2D3E38
:1008C0004C65643D25730D0A000000004E6F74698D
:1008D0006669636174696F6E20554E4B4E4F5720A9
:1008E00068616E646C650D0A0000000010B50F4869
:1008F0000F4908604FF48270486000210C48816005
:100900004FF4E061C1600021016141614FF4007169
:1009100081610021016241620721C1621821C16128
:100920000021816202F0A8FF10BD000000300140EC
:10093000E42600202DE9F04104460E462546002716
:1009400015B90120BDE8F081EF680EB90120F9E783
:10095000B86908B90120F5E731462846BA699047D9
:10096000012800D1EEE70020ECE7024613460BB960
:100970000120704709B90120FBE758790870002071
:10098000F7E7000010B586B0044600BF2048806D30
:1009900040F080501E4988650846806D00F0805008
:1009A000009000BF00BF01F0E5FF00BF6CB900BFC1
:1009B0001748C06C40F040001549C8640846C06C38
:1009C00000F04000009000BF00BF012C0DD100BF1F
:1009D0000F48C06C40F001000D49C8640846C06C67
:1009E00000F00100009000BF00BF00BF094850F8B0
:1009F0002400019001200290002003900220049026
:100A0000054951F8240001A900F0CAFC06B010BD48
:100A10000010024040950008E000002010B5044698
:100A200054B90C4A32F8242091B20B4A52F82400EF
:100A3000002200F0C1FD0BE0012C09D1054A32F87B
:100A4000242091B2044A52F82400012200F0B4FD9F
:100A500010BD000040950008E000002010B50446DD
:100A600054B90C4A32F8242091B20B4A52F82400AF
:100A7000012200F0A1FD0BE0012C09D1054A32F85A
:100A8000242091B2044A52F82400002200F094FD80
:100A900010BD000040950008E00000202DE9F04165
:100AA00004460E462546002715B90120BDE8F08111
:100AB000EF680EB90120F9E7B86908B90120F5E738
:100AC00031462846BA699047012800D1EEE7002058
:100AD000ECE7024613460BB90120704709B9012023
:100AE000FBE7587908700020F7E72DE9F04104464C
:100AF0000E462546002715B90120BDE8F081EF68B4
:100B00000EB90120F9E7B86908B90120F5E73146C7
:100B10002846BA699047012800D1EEE70020ECE7AB
:100B2000024613460BB90120704709B90120FBE7C3
:100B3000587908700020F7E710B52021034800F02D
:100B400033FD012800D110BD0020FCE7000800485B
:100B500010B500F0C4FA08F049FC00F005F808F000
:100B600029FC00F0C6FA10BD10B50022802107480C
:100B700000F022FD052000F0E9FB0122802103485E
:100B800000F01AFD052000F0E1FB10BD0008004850
:100B9000F0B587B007460E460025FF20069022A13B
:100BA00003C9CDE9030100220421214800F004FD1E
:100BB0000F20052301AA03A900901E4802F090FF10
:100BC0009DF8040002281DD19DF807009DF808102B
:100BD00040EA0124002C15DDB44200DD3446002536
:100BE0000EE072B60F20012305AA06A90090114855
:100BF00002F076FF62B69DF814007855681CC5B205
:100C0000A542EEDB01220421094800F0D5FC0020BA
:100C1000009003E000BF0098401C0090009802285C
:100C2000F8DB284607B0F0BD0B0000000000000014
:100C300000040048E42600202DE9F047C6B08046B5
:100C4000894616461C464E9D4FF0000A002729A1F2
:100C500003C94591449029A103C94391429000F0F2
:100C60003EFA1FB108F0C2FB08F0D8FB00220421B5
:100C7000244800F0A1FC72B60F20052342AA44A923
:100C80000090404602F02CFF62B60FB108F092FBD4
:100C90009DF80801022820D19DF8090161198842B8
:100CA00018DB002C09DD72B60F20234602AA494644
:100CB0000090404602F014FF62B6002D0FDD72B6C0
:100CC0000F202B4602AA31460090404602F008FF52
:100CD00062B604E06FF0010A01E04FF0FF3A012232
:100CE0000421084800F068FC00F003FA504646B0C2
:100CF000BDE8F0870A00000000000000AA00000024
:100D0000000000000004004800BFFEE730B50246C6
:100D10000B4600210DE0505C084C094D2D686055D4
:100D200007480088401CC0F30A00054C2060481C9E
:100D300081B29942EFD3002030BD0000C40D0020E5
:100D40005400002010B50346042B15D007DC7BB1FE
:100D5000012B0ED0022B0DD0032B3CD10BE0202B0E
:100D60000BD0212B1CD0222B33D0232B33D131E0BD
:100D700032E031E030E02FE02EE008784C7840EAB5
:100D800004208C7840EA0440CC7840EA0460144C9B
:100D9000206008792071487960718879A0711BE022
:100DA0000F48007808700E480088000A48700C4808
:100DB0000068000C88700A480068000EC870084877
:100DC0000079087106484079487105488079887132
:100DD00002E001E000E000BF00BF002010BD000005
:100DE000480000200020704708B500BF1348806D00
:100DF00040F00200114988650846806D00F002004D
:100E0000009000BF00BF002206211D2000F071FEEF
:100E10001D2000F061FE00F01FF8094803F01CF8E7
:100E200008B100F00BFA00220649074805F05FFC04
:100E30000649054805F054FC002008BD001002409A
:100E4000C41D0020C40D0020A0030020C405002004
:100E5000024600207047000010B50A480A490860A1
:100E600041F287310848C1604F200749486000219E
:100E700005480161816002F096FF08B100F0DEF9DB
:100E800010BD000000040040C41D002070B50646DF
:100E90001748006817490968884227D01448006835
:100EA00014490968884204D911480068C0F50064F3
:100EB00004E0104800680E490968441A0C480568A7
:100EC000A2B20D4841190D4805F011FC0B4805F080
:100ED00061FC58B906480068204405490860084686
:100EE0000068B0F5006F01D10020086070BD0000FF
:100EF0005800002054000020C40D0020A003002052
:100F00002020014908607047140401402DE9F04396
:100F1000C1B004468946E078A17840EA01206178B2
:100F200040EA0140217840EA016625796779B6F107
:100F3000005F46D125480088C0F3002068B12B46E9
:100F4000324623A1284806F0FBFF284908600846DE
:100F50000178254805F032FA0BE02B46324624A1F1
:100F600001A806F0EDFF8046414601A8FFF7CEFE3E
:100F700000BF6DB1012D18D10120234981F82C004B
:100F800003F0B1FF3A462946680700F03FF80CE04D
:100F900000201D4981F82C0003F0A0FF3A462946A5
:100FA0004FF0005000F032F800BF00BF0748007853
:100FB000C0F3400020B1144991F82C0003F02AFF3F
:100FC00000BF00BF41B0BDE8F0830000000000207A
:100FD000436F6E662053696720463D256C78204339
:100FE0003D2532780A0D0000080200200400002090
:100FF000436F6E662053696720463D256C78204319
:101000003D2532780D0A00006C0300202DE9F041E7
:10101000C2B004460D46164600F0D8FAC0F3C70029
:101020008DF8000100F0D2FAC00A8DF8010140A845
:101030004471210A0171210CC170200E8DF802014A
:101040008DF806518DF8076140A808230022009012
:10105000144801881448008807F078FB0746002FE1
:101060001ED012480088C0F3402058B110A1194882
:1010700006F066FF1849086008460178154804F034
:1010800077FE09E00AA1684606F05AFF804641460D
:101090006846FFF73BFE00BF472042B0BDE8F08145
:1010A0000020FAE736000020340000200000002075
:1010B0004572726F72205570646174696E67204367
:1010C0006F6E66696775726174696F6E20436861DF
:1010D000720D0A000802002004000020704710B5BD
:1010E000172000F0EBFC10BD10B5202000F04AF9ED
:1010F00010BD10B5172000F0EFFC10BD2DE9F04732
:10110000C4B005460F4690461E4600F05FFAC0F395
:10111000C7008DF8040100F059FAC00A8DF80501E6
:1011200002243648406970B141A90D55280A21446E
:101130004870280C41A921448870280E41A92144F7
:10114000C870201DC4B22D48806930B141A90F5527
:10115000381221444870A01CC4B228488068022874
:1011600010D141A901F804804FEA182021444870A9
:10117000A01CC4B241A90E55300A21444870A01CDD
:10118000C4B20AE01D488068012806D141A90E5565
:10119000300A21444870A01CC4B241A800901848ED
:1011A00003780022174801881748008807F0CEFA14
:1011B0008146B9F1000F1ED014480088C0F34020CA
:1011C00058B113A11B4806F0BBFE1B490860084636
:1011D0000178184804F0CCFD09E00DA101A806F043
:1011E000AFFE8246514601A8FFF790FD00BF4720A1
:1011F00044B0BDE8F0870020FAE700006C0300204F
:1012000040000020300000202E00002000000020C0
:101210004572726F72205570646174696E67204503
:101220006E7669726F6E6D656E74616C2043686175
:10123000720D0A00080200200400002000BFFEE733
:1012400070B5C4B004460D4601200E4908600E4832
:10125000058020786178A278E378CDE90032CDE985
:1012600002102379627909A104A806F069FE0646F6
:10127000314604A8FFF74AFD00200D49086044B03C
:1012800070BD000028000020420000203E3E3E3E8F
:101290003E3E434F4E4E45435445442025783A2523
:1012A000783A25783A25783A25783A25780D0A0053
:1012B0000000002010B5C0B000200D4908600DA14D
:1012C000684606F03DFE044621466846FFF71EFDCF
:1012D00001200E49087000200D49086000210D48CA
:1012E00002F08EFF08B1FFF7A9FF40B010BD00006B
:1012F000280000203C3C3C3C3C3C444953434F4E7E
:101300004E45435445440D0A000000002C000020C7
:10131000000000200803002070B50A480468001D82
:101320000568001D0668344454B108220649204669
:1013300003F050FD042204491031284603F04AFD11
:1013400070BD0000107AFF1FA600002031B50024F8
:1013500000F03CF9044600E030BF00F037F9001B14
:1013600000998842F8D338BD10B50446202C05D129
:1013700003F062F801200249086000BF00BF10BD01
:101380001000002010B5044604480068204020B139
:10139000024804602046FFF7E7FF10BD1404014037
:1013A00078B50346002200240020E5E0012696409F
:1013B0000D6805EA0604002C7DD04D68022D02D090
:1013C0004D68122D13D1D60803F1200555F82600DB
:1013D0005507EE0E0F25B540A8435607F60E0D69CA
:1013E000B5402843D60803F1200545F826001868C3
:1013F00056000325B540A8430D7905F003055600B6
:10140000B540284318604D68012D08D04D68022D65
:1014100005D04D68112D02D04D68122D13D198685A
:1014200056000325B540A8435600CD68B540284373
:101430009860586801259540A8430D79C5F30015BB
:101440009540284358600D7905F00305032D09D117
:10145000D86A01259540A8430D79C5F3C00595408C
:101460002843D862D86856000325B540A8435600E3
:101470008D68B5402843D8604D6805F08055B5F1BA
:10148000805F78D100BF3F4D2D6E45F001053D4E88
:10149000356635462D6E05F00105009500BF00BF8D
:1014A0004FEAB635960855F8260095072E0F0F25FA
:1014B000B540A84300E05EE0B3F1904F01D10025B4
:1014C0001EE0314DAB4201D1012519E02F4DAB4259
:1014D00001D1022514E02E4DAB4201D103250FE0CE
:1014E0002C4DAB4201D104250AE02B4DAB4201D17A
:1014F000052505E0294DAB4201D1062500E0072571
:101500009607360FB5402843254D960845F8260026
:10151000244D2868A0434D6805F48035B5F5803F1B
:1015200000D120431F4D28602D1D2868A0434D6821
:1015300005F40035B5F5003F00D12043194D2D1DB0
:1015400028602D1D2868A0434D6805F48015B5F569
:10155000801F00D12043134D083528602D1D2868B9
:10156000A0434D6805F40015B5F5001F00D12043D8
:101570000C4D0C352860521C0D68D540002D7FF4B1
:1015800015AF78BD00100240000400480008004874
:10159000000C0048001000480014004800180048E3
:1015A0000800014000040140024613690B400BB1E2
:1015B000012000E0002070470AB1816100E08162F3
:1015C00070470000004870470001070101480068AB
:1015D00070470000D400002010B504460CB901206B
:1015E00010BD242084F841002068006820F001002C
:1015F00021680860204600F034FA0020606484F816
:101600004100206384F8420000BF84F8400000BF1E
:1016100000BFE5E7014691F84100704710B5044668
:101620000CB9012010BD94F8410028B9002084F8BD
:101630004000204600F016FA242084F8410020687B
:10164000006820F0010021680860606820F0706088
:10165000216808612068806820F400402168886063
:10166000E068012805D1A06840F400402168886046
:1016700004E0A06840F4044021688860E068022823
:1016800002D18002216848602068406813490843FD
:10169000216848602068C06820F400402168C86064
:1016A000D4E904010843A16940EA01202168C86027
:1016B000D4E907010843216808602068006840F009
:1016C00001002168086000206064202084F8410047
:1016D0000020206384F8420000BFA3E700800002DE
:1016E0002DE9FC5F0446894692469B46DDE90C786D
:1016F0000E9E002594F8410020287DD117B1B8F145
:10170000000F02D1012000F0C9B800BF94F84000DA
:10171000012801D10220F6E7012084F8400000BF33
:10172000FFF754FF054619230122D10320460095F7
:1017300003F0F2F808B10320E5E7222084F8410025
:10174000402084F84200002060646762A4F82A8088
:1017500060635B46524649462046CDE9006502F08B
:1017600065FF80B1606C042806D100BF002084F8BA
:10177000400000BF0120C6E700BF002084F8400001
:1017800000BF0320BFE7608DFF280DD9FF20208513
:101790004FF41050009094F828204FF08073494681
:1017A000204603F0A1F80CE0608D20854FF4105026
:1017B000009094F828204FF000734946204603F02B
:1017C00093F800BF3346002204212046009503F021
:1017D000A3F808B1032096E72068406AC1B2626AA4
:1017E000501C60621170208D401E2085608D401E4F
:1017F0006085208D48BB00E04BE0608D28B3334608
:10180000002280212046009503F086F808B10320CD
:1018100079E7608DFF280CD9FF20208500200090FB
:1018200094F828204FF080734946204603F05CF876
:101830000BE0608D20850020009094F828204FF068
:1018400000734946204603F04FF8608D0028B9D157
:101850002A463146204603F08AF830B1606C0428ED
:1018600001D101204FE703204DE720202168C86106
:10187000206840680849084021684860202084F8B2
:101880004100002084F8420000BF84F8400000BFFF
:1018900039E7022037E7000000E800FE3CBCBDE865
:1018A000C09F00002DE9FC5F0446894692469B4696
:1018B000DDE90C780E9E002594F8410020286ED1B9
:1018C00017B1B8F1000F02D1012000F0C7B800BF76
:1018D00094F84000012801D10220F6E7012084F8A5
:1018E000400000BFFFF772FE054619230122D10315
:1018F0002046009503F010F808B10320E5E7212009
:1019000084F84100402084F842000020606467624F
:10191000A4F82A8060635B46524649462046CDE9DA
:10192000006502F0C9FE80B1606C042806D100BFDA
:10193000002084F8400000BF0120C6E700BF00205F
:1019400084F8400000BF0320BFE7608DFF280CD95A
:10195000FF2020850020009094F828204FF080730D
:101960004946204602F0C0FF0BE0608D2085002034
:10197000009094F828204FF000734946204602F06A
:10198000B3FF00BF2A463146204603F01BF838B1AA
:10199000606C042801D1012097E7032095E759E006
:1019A000616A481C6062087821688862608D401E08
:1019B0006085208D401E2085208D38BB608D28B32A
:1019C0003346002280212046009502F0A5FF08B191
:1019D00003207AE7608DFF280CD9FF2020850020A6
:1019E000009094F828204FF080734946204602F07A
:1019F0007BFF0BE0608D20850020009094F828206C
:101A00004FF000734946204602F06EFF608D0028BB
:101A1000B8D12A463146204602F0A9FF30B1606CA9
:101A2000042801D1012050E703204EE7202021683F
:101A3000C861206840680849084021684860202043
:101A400084F84100002084F8420000BF84F8400080
:101A500000BF3AE7022038E700E800FE3CBCBDE8E2
:101A6000C09F70477047000002480068401C014951
:101A700008607047D400002010B5032000F07AF809
:101A80000F2000F005F800F017F8002010BD00004E
:101A900070B50446074800684FF47A71B0FBF1F561
:101AA000284602F064F900222146501E00F021F879
:101AB000002070BDD80000207047000000BF00F07B
:101AC0001F0201219140034A430942F8231000BF3D
:101AD0007047000080E100E000BF00F01F0201211C
:101AE00091404209920002F1E022C2F8001100BFC9
:101AF00070472DE9F05F80460D461646002703F03B
:101B0000FBF9074639462A46334601F00700C0F183
:101B1000070ABAF1040F02D94FF0040A01E0C0F13C
:101B2000070AD14600F1040ABAF1070F02D24FF0BA
:101B3000000A01E0A0F1030AD4464FF0010A0AFAB4
:101B400009FAAAF1010A0AEA020A0AFA0CFA4FF0A3
:101B5000010B0BFA0CFBABF1010B0BEA030B4AEA8E
:101B60000B042146404603F0CFF900F000B830BC2A
:101B7000BDE8C09F00BF00F00702064B19684FF692
:101B8000FF031940044B0B4343EA0221014B196048
:101B900000BF70470CED00E00000FA0501460A683E
:101BA0000120C1F8C403906B40F400309063002022
:101BB0007047000001460A680120C1F8C0030020F8
:101BC00081F8B803906940F000609061506D024B5D
:101BD000184350650020704703000010704702460C
:101BE0001068416200207047F0B503461446002596
:101BF00000221868426A21B942EA04401E68B062B5
:101C000019E01868806A02EB1042002508E01868A5
:101C100000F5827050F8250002EB1042681CC5B236
:101C2000481EA842F3DC42EA0447186800F58270B7
:101C30004E1E40F826700020F0BD10B50446D4F8C2
:101C4000C80305F051F810BD70B504460D46C5EB4C
:101C5000C50304F13C0101EB8301CA682946D4F8AD
:101C6000C80304F091FF70BD70B504460D46C5EB86
:101C7000C50304F5F07101EB8301CA682946D4F865
:101C8000C80304F0EEFF70BD10B50446D4F8C803D5
:101C900005F02DF810BD70B504460D46002605F080
:101CA0008000802808D105F07F00C0EBC00104F15E
:101CB0003C0000EB810607E005F07F00C0EBC001AF
:101CC00004F5F07000EB810605F07F00307005F040
:101CD0008000C009707000BF94F88403012801D10E
:101CE000022070BD012084F8840300BF31462068C3
:101CF00005F04EFC00BF002084F8840300BF00BF45
:101D0000EFE770B504460D46002605F080008028F8
:101D100008D105F07F00C0EBC00104F13C0000EBEE
:101D2000810605E0C5EBC50104F5F07000EB810606
:101D30000020B07005F07F003070C5F3C0107070E7
:101D400000BF94F88403012801D1022070BD012056
:101D500084F8840300BF3146206805F036FE00BFDA
:101D6000002084F8840300BF00BFEFE7024601F0C3
:101D70007F00C0EBC00302F5F07000EB8300008B26
:101D800080B270472DE9F04704460D461746984645
:101D90004FF00009002605F08000802808D105F0EA
:101DA0007F00C0EBC00104F13C0000EB810607E0BE
:101DB00005F07F00C0EBC00104F5F07000EB810678
:101DC00005F07F00307005F08000C0097070B760CA
:101DD00086F8038000BF94F88403012802D1022012
:101DE000BDE8F087012084F8840300BF31462068F5
:101DF00005F016FB00BF002084F8840300BF4846AE
:101E0000EEE72DE9F04104460E46174698460025B8
:101E100006F07F00C0EBC00104F5F07000EB810517
:101E2000EF60C5F814800020A861687006F07F009C
:101E3000287006F07F0028B9227C2946206805F02A
:101E4000E9FC04E0227C2946206805F049FE0020D8
:101E5000BDE8F08170B504460D46002605F080000F
:101E6000802808D105F07F00C0EBC00104F13C00E0
:101E700000EB810605E0C5EBC50104F5F07000EB51
:101E800081060120B07005F07F003070C5F3C010EE
:101E9000707000BF94F88403012801D1022070BD46
:101EA000012084F8840300BF3146206805F0D1FD8D
:101EB00005F07F0028B9217C04F56272206805F0E6
:101EC0006BFD00BF002084F8840300BF00BFE6E77D
:101ED0002DE9F04104460E4617469846002506F0C7
:101EE0007F00C0EBC00104F13C0000EB8105EF6016
:101EF000C5F814800020A8610120687006F07F00FA
:101F0000287006F07F0028B9227C2946206805F059
:101F100081FC04E0227C2946206805F0E1FD0020D8
:101F2000BDE8F0812DE9FC5F044626684FF0000B08
:101F30000020019081460025009080468246FE4F99
:101F4000206805F057FF00287DD1206805F08DFF3F
:101F500008B900F0ABBB206805F087FF00F0020075
:101F6000022805D12068406900F00200216848611C
:101F7000206805F07AFF00F40020B0F5002F72D140
:101F80000025206805F044FF0190CEE0019800F0A4
:101F90000100002868D0E9B2206805F05BFF8146A7
:101FA00009F0010000285DD0012106F5306000EB4A
:101FB00045108160306CE149884256D1D6F8080B53
:101FC00000F40040F0BB206901282BD1C5EBC5010E
:101FD00004F5F07000EB8100816806F5306000EBDD
:101FE00045100069C0F31200091AC5EBC50204F5DB
:101FF000F07000EB82008161C5EBC50104F5F07063
:1020000000EB8100C5EBC502C16804F5F07000EB80
:10201000820080680144C5EBC50204F5F07000EB56
:102020008200C160E9B22046FFF71EFE2069012848
:1020300011D13DB9C5EBC50104F5F07000EB81008D
:10204000406901E007E01BE328B904F56272012151
:10205000206805F0A1FCD6F8081B48F220000143D7
:10206000C6F8081B46E064E05BE0206901282BD13C
:10207000C5EBC50104F5F07000EB8100816806F541
:10208000306000EB45100069C0F31200091AC5EB7F
:10209000C50204F5F07000EB82008161C5EBC5015B
:1020A00004F5F07000EB8100C5EBC502C16804F5D2
:1020B000F07000EB820080680144C5EBC50204F5B6
:1020C000F07000EB8200C160E9B22046FFF7CCFD62
:1020D000206901280ED16DB9C5EBC50104F5F0707A
:1020E00000EB8100406928B904F562720121206883
:1020F00005F052FC09F00800082808D1204600F03D
:102100000EFC082106F5306000EB4510816009F0F7
:102110001000102805D1102106F5306000EB4510A5
:1021200081606D1C019840080190019800287FF49F
:102130002DAF206805F099FE00F48020B0F5802FC7
:102140007DD1206805F05BFE0190002585E00198B7
:1021500000F0010000287CD0E9B2206805F061FEA3
:10216000814609F00100E8B30120A840009040F644
:10217000340080590099884340F634018851012188
:1021800006F5106000EB451081602069012815D12B
:10219000C5EBC50104F13C0000EB8100C5EBC502B5
:1021A000C16804F13C0000EB820080680144C5EB8B
:1021B000C50204F13C0000EB8200C160E9B2204698
:1021C000FFF742FD2069012810D15DB9C5EBC501BB
:1021D00004F13C0000EB8100406918B904F562721B
:1021E000012100E002E0206805F0D6FB09F00800BC
:1021F000082805D1082106F5106000EB4510816024
:1022000009F01000102805D1102106F5106000EB30
:102210004510816009F04000402805D1402106F5B5
:10222000106000EB4510816009F00200022805D122
:10223000022106F5106000EB4510816001E010E01E
:1022400007E009F08000802803D12946204602F0EB
:102250008BFE6D1C019840080190019800287FF4C6
:1022600076AF206805F001FE00F00040B0F1004FAD
:102270001CD140F60400805920F0010140F6040012
:10228000815194F8B803012807D1002084F8B803DD
:1022900000212046FFF7A2FC02E0204600F016FBDA
:1022A0002068406900F0004021684861206805F01E
:1022B000DCFD00F40060B0F5006F0ED140F60800C0
:1022C000805900F0010010B1204600F04BFB20685F
:1022D000406900F4006021684861206805F0C5FD90
:1022E00000F00060B0F1006F19D12068406900F083
:1022F00000602168486194F8B80368B9012084F847
:10230000B8032068406DC0F38300C4F8BC0301210A
:102310002046FFF763FC02E0204600F023FB206824
:1023200005F0A3FD00F48050B0F5805F62D140F667
:102330000400805904E0000000B4C4040A31544F82
:1023400020F0010140F6040081511021206805F0C1
:1023500039FD4FF0000B0CE0FF2106F5106000EB9B
:102360004B10816006F5306000EB4B1081600BF183
:10237000010B60685845EFD84FF0FF3140F6180068
:102380008151001D805940F0011140F61C0081511F
:10239000206B70B1D6F8840840F00B01C6F88418A1
:1023A00040F64400805940F00B0140F64400815152
:1023B0000EE040F61400805940F00B0140F6140086
:1023C0008151001F805940F00B014FF40160815191
:1023D000D6F8000820F4FE60C6F80008217C04F559
:1023E0006272206805F0D8FA2068406900F48050D5
:1023F00021684861206805F038FD00F40050B0F510
:10240000005F77D1206805F06DF82068C06820F47F
:1024100070502168C8600321E1604021616100F0D3
:1024200047FE07469748874209D39748874206D216
:102430002068C06840F470502168C8606EE092481F
:10244000874209D39148874206D22068C06840F489
:1024500060502168C86061E08C48874209D38C488D
:10246000874206D22068C06840F450502168C86096
:1024700054E08748874209D38648874206D22068BD
:10248000C06840F440502168C86047E081488742F6
:1024900009D38148874206D22068C06840F4305092
:1024A0002168C8603AE07C48874209D37B4887426C
:1024B00006D22068C06840F420502168C8602DE032
:1024C0007648874209D37648874206D22068C0689A
:1024D00040F410502168C86020E0714887420AD358
:1024E0007048874207D22068C06840F400502168D5
:1024F000C86013E01BE06B48874209D36A488742F3
:1025000006D22068C06840F4E0502168C86005E049
:102510002068C06840F4C0502168C860204600F0C0
:10252000C9F92068406900F40050216848612068BA
:1025300005F09BFC00F01000102845D12068806950
:1025400020F0100021688861D6F8208008F00F0084
:10255000C0EBC00104F5F07000EB810AC8F3434002
:1025600002281AD147F6F07008EA000030B3C8F329
:102570000A123046DAF80C1005F07DFCC8F30A1197
:10258000DAF80C000844CAF80C00C8F30A11DAF8AB
:1025900018000844CAF8180010E0C8F343400628A1
:1025A0000CD1082204F56271304605F064FCC8F3D2
:1025B0000A11DAF818000844CAF81800206880697F
:1025C00040F0100021688861206805F04EFC00F0A2
:1025D0000800082808D1204600F07FF920684069EB
:1025E00000F0080021684861206805F03EFC00F416
:1025F0008010B0F5801F09D1E9B2204600F059F8EB
:102600002068406900F4801021684861206805F066
:102610002CFC00F40010B0F5001F09D1E9B22046EF
:1026200000F050F82068406900F40010216848610B
:10263000206805F01AFC00F08040B0F1804F08D10E
:102640002046FFF7FAFA2068406900F080402168D0
:102650004861206805F009FC00F0040004280FD14F
:102660002068D0F8048008F00400042802D1204635
:10267000FFF70AFB2068406840EA080021684860CC
:1026800000BF66E4C0ACD800C0E1E4000024F40060
:1026900080730601A0491A01002D310140A44C01AC
:1026A00000366E0120ABA6010048E8013CBCBDE845
:1026B000C09F70B504460D462946D4F8C80304F0FF
:1026C0007BFB70BD70B504460D462946D4F8C8039F
:1026D00004F075FB70BD30B58BB00446002514B90D
:1026E00001200BB030BD94F8850328B9002084F890
:1026F0008403204600F0A2F8032084F885032068B4
:1027000005F080F8282204F110016846FDF758FD15
:1027100094E80F0004F008FF0021206805F0BFFBDB
:10272000002530E00121C5EBC50204F13C0000EBBF
:1027300082004170C5EBC50204F13C0000F8225054
:10274000C5EBC50200EB8200C5800021C5EBC502C8
:1027500004F13C0000EB8200C170C5EBC50204F13E
:102760003C0000EB82008160C5EBC50204F13C0037
:1027700000EB8200C160C5EBC50204F13C0000EB38
:10278000820041616D1C6068A842CBD8002531E011
:102790000021C5EBC50204F5F07000EB820041702A
:1027A000C5EBC50204F5F07000F82250C5EBC50278
:1027B00004F13C0000EB8200C580C5EBC50204F5C6
:1027C000F07000EB8200C170C5EBC50204F5F0703B
:1027D00000EB82008160C5EBC50204F5F07000EBF0
:1027E0008200C160C5EBC50204F5F07000EB820009
:1027F00041616D1C0F2DCBD3282204F110016846D6
:10280000FDF7DEFC94E80F0004F034FF002084F8AC
:102810003800012084F88503606A012802D120462F
:10282000FFF7C8F9A06A012802D12046FFF7B6F9E0
:10283000206804F010FF002053E7000010B586B0B8
:10284000044600BF1A48C06C40F001001849C86433
:102850000846C06C00F00100009000BF00BF4FF4BC
:10286000C0500190022002900020039003200490A9
:102870000A20059001A94FF09040FEF791FD00BF9E
:102880000B48C06C40F480500949C8640846C06CCD
:1028900000F48050009000BF00BF002206214320BA
:1028A000FFF727F94320FFF717F906B010BD000026
:1028B0000010024010B50446D4F8C80304F0A2FA90
:1028C0000121D4F8C80304F0D7FA10BD10B50446AE
:1028D000D4F8C80304F0B8FA10BD10B50446D4F813
:1028E000C80304F0B8FA10BD70B504460D4600BF29
:1028F00094F88403012801D1022070BD012084F8DE
:10290000840300BF84F838502946206805F0DFFAB8
:1029100000BF002084F8840300BF00BFEDE710B5BE
:10292000044604F56271D4F8C80304F0B3FA10BD8C
:1029300010B5044600BF94F88403012801D1022099
:1029400010BD012084F8840300BF206804F074FEE9
:10295000206805F019FA00BF002084F8840300BF46
:1029600000BFEDE710B50446D4F8C80304F0DBFA65
:1029700010BD00000348406840F400700149486001
:1029800070470000007000400348406840F48060D9
:10299000014948607047000000700040024800682C
:1029A00000F4C060704700000070004003480068F9
:1029B00040F48070014908607047000000700040DA
:1029C0000648006820F0200004499039C1F89000C2
:1029D0000846806920F400708861704790100240BA
:1029E0000348006840F00400014908607047000097
:1029F000001002402DE9F843044600260027002578
:102A0000A846208800F40060B0F5006F30D1606EF9
:102A100080B1B0F5800F13D0B0F5000F03D0B0F542
:102A2000400F15D113E0FA48C06840F48030F849EF
:102A3000C8600FE00021201D02F0F4FA054609E00D
:102A4000002104F1200002F0E3FB054602E001E072
:102A5000012500BF00BF55B9ED488830006820F45B
:102A60004000616E0843EA49C1F8880000E0A846CA
:102A7000208800F48050B0F5805F30D1A06E80B126
:102A8000B0F1807F13D0B0F1007F03D0B0F1407F70
:102A900015D113E0DE48C06840F48030DC49C860DE
:102AA0000FE00021201D02F0BDFA054609E00021DB
:102AB00004F1200002F0ACFB054602E001E0012534
:102AC00000BF00BF55B9D2488830006820F0407080
:102AD000A16E0843CE49C1F8880000E0A8462068EE
:102AE00000F40030B0F5003F76D14FF00009C8483F
:102AF000806D00F0805078B900BFC548806D40F00F
:102B00008050C34988650846806D00F08050009071
:102B100000BF00BF4FF00109BE48006840F480705C
:102B2000BC490860FEF752FD074606E0FEF74EFD81
:102B3000C01B022801D9032505E0B648006800F44F
:102B400080700028F2D000BF85BBB148903000688B
:102B500000F44076D6B1D4F88400B04216D0AC4828
:102B60009030006820F44076A948D0F8900040F4F6
:102B70008030A749C1F890000846D0F8900020F4B2
:102B80008030C1F890000846C0F8906006F001005F
:102B9000A8B1FEF71BFD074609E0FEF717FDC01BB5
:102BA00041F28831884202D9032507E017E09848AE
:102BB0009030006800F002000028EED000BF65B938
:102BC00093489030006820F44070D4F88410084393
:102BD0008F49C1F8900003E00CE0A84600E0A84649
:102BE000B9F1010F05D18A48806D20F080508849E5
:102BF000886500BF207800F0010048B18448883023
:102C0000006820F00300A16B08438149C1F88800E7
:102C1000207800F00200022809D17D488830006841
:102C200020F00C00E16B08437949C1F88800207856
:102C300000F00400042809D175488830006820F0AD
:102C40003000216C08437249C1F88800207800F0F8
:102C50000800082809D16E488830006820F0C000BC
:102C6000616C08436A49C1F88800207800F01000C0
:102C7000102809D166488830006820F44070A16CA3
:102C800008436349C1F88800207800F0200020281C
:102C900009D15F488830006820F44060E16C084347
:102CA0005B49C1F88800208800F40070B0F5007F0F
:102CB00009D157488830006820F44020E16D08436E
:102CC0005349C1F88800208800F48060B0F5806F17
:102CD00009D14F488830006820F44010216E084325
:102CE0004B49C1F88800207800F04000402809D105
:102CF00047488830006820F44050216D084344491B
:102D0000C1F88800207800F08000802809D1404870
:102D10008830006820F44040616D08433C49C1F8A8
:102D20008800208800F48070B0F5807F09D1384891
:102D30008830006820F44030A16D08433449C1F860
:102D40008800208800F40050B0F5005F1FD13048A3
:102D50008830006820F04060E16E08432C498831DB
:102D60000860E06EB0F1006F06D12948C06840F4F9
:102D700080102749C8600AE0E06EB0F1806F06D18C
:102D80000121201D02F04EF9054605B1A846206834
:102D900000F40020B0F5002F1FD11D4888300068D6
:102DA00020F04060216F0843194988310860206F86
:102DB000B0F1006F06D11648C06840F48010144985
:102DC000C8600AE0206FB0F1806F06D10121201D9C
:102DD00002F028F9054605B1A846206800F48020D5
:102DE000B0F5802F23D10A488830006820F0406079
:102DF000616F0843064988310860606FB0F1006F69
:102E00000AD10348C06840F480100149C8600EE050
:102E10000010024000700040606FB0F1806F06D17A
:102E20000121201D02F0FEF8054605B1A8462088C4
:102E300000F48040B0F5804F1FD12248006820F098
:102E40004050A16F08431F490860A06FB0F1805F38
:102E500007D10221201D02F0E5F805466DB1A84614
:102E60000BE0A06FB0F1005F07D1022104F1200058
:102E700002F0CEF9054605B1A846208800F40040CE
:102E8000B0F5004F09D10F48006820F08040E16F95
:102E900008430C498839C1F88800206800F4803064
:102EA000B0F5803F0AD10748006820F00040D4F810
:102EB0008010084303498839C1F888004046BDE8BE
:102EC000F88300008810024070B504460D460026C5
:102ED0007348006800F00700A8420ED270480068EE
:102EE00020F0070028436E4908600846006800F09B
:102EF0000700A84201D0012070BD207800F0020038
:102F0000022807D16748806820F0F000A1680843D4
:102F100064498860207800F00100002879D060685A
:102F2000022806D15F48006800F40030D8B90120BB
:102F3000E2E76068032806D15A48006800F0007094
:102F400088B90120D8E7606830B95648006800F0B9
:102F5000020040B90120CFE75248006800F48060C9
:102F600008B90120C8E74F48806820F00300616875
:102F700008434C498860FEF729FB06466068022832
:102F800010D108E0FEF722FB801B41F28831884215
:102F900001D90320B0E74348806800F00C000828FE
:102FA000F0D136E06068032810D108E0FEF70EFB90
:102FB000801B41F28831884201D903209CE73948BF
:102FC000806800F00C000C28F0D122E0606880B925
:102FD00008E0FEF7FBFA801B41F28831884201D9F4
:102FE000032089E72F48806800F00C000028F0D10A
:102FF0000FE008E0FEF7EAFA801B41F288318842D0
:1030000001D9032078E72748806800F00C000428E5
:10301000F0D12348006800F00700A8420ED92048EC
:10302000006820F0070028431D4908600846006832
:1030300000F00700A84201D001205DE7207800F0F1
:103040000400042807D11748806820F4E060E16894
:10305000084314498860207800F00800082808D147
:103060001048806820F46050216940EAC1000D4991
:10307000886000F023F80B49896801F0F001F02224
:1030800092FAA2F2B2FA82F2D140074A515CC840E9
:10309000064908600F20FEF7FBFC00202CE700002B
:1030A0000020024000100240F8940008D8000020E0
:1030B0000148006870470000D8000020F0B50021EA
:1030C00000230024022502220020554EB66806F097
:1030D0000C065EB1524EB66806F00C060C2E2DD1D1
:1030E0004F4EF66806F00306012E27D14C4E366887
:1030F00006F008066EB94A4E9436366806F47066D5
:103100004FF4706797FAA7F7B7FA87F726FA07F12F
:103110000AE0434E366806F0F006F02797FAA7F764
:10312000B7FA87F726FA07F13E4E56F821103C4EC3
:10313000B66806F00C0686B908460EE0384EB6684A
:1031400006F00C06042E01D1374806E0344EB6686E
:1031500006F00C06082E00D13348314EB66806F052
:103160000C060C2E5BD12E4EF66806F003042C4E96
:10317000F66806F07006702797FAA7F7B7FA87F790
:10318000FE40721C012C29D0022C02D0032C24D129
:1031900011E0254EB6FBF2F6214FFF6807F4FE471B
:1031A0004FF4FE4C9CFAACFCBCFA8CFC27FA0CF7F2
:1031B00006FB07F323E01C4EB6FBF2F6184FFF6840
:1031C00007F4FE474FF4FE4C9CFAACFCBCFA8CFCB6
:1031D00027FA0CF706FB07F311E000BFB1FBF2F68C
:1031E0000F4FFF6807F4FE474FF4FE4C9CFAACFC0F
:1031F000BCFA8CFC27FA0CF706FB07F300BF00BFF4
:10320000074EF66806F0C0664FF0C06797FAA7F75A
:10321000B7FA87F7FE40761C7500B3FBF5F0F0BDFA
:1032200000100240109500080024F400F8B5044690
:103230000025207800F01000102874D1FE48806826
:1032400000F00C00002870D1FB48006800F002007C
:1032500018B1A06908B90120F8BDF748216A0068D3
:1032600000F0080020B1F448006800F0F00005E02C
:10327000F1489430006800F47060000981421FD961
:10328000206A02F09BF808B10120E5E700BFEA4898
:10329000006840F00800E84908600846006820F02F
:1032A000F000216A0843E449086000BF084640680E
:1032B00020F47F40E16940EA0120DF4948601EE0D8
:1032C00000BFDD48006840F00800DB4908600846A0
:1032D000006820F0F000216A0843D749086000BF69
:1032E0000846406820F47F40E16940EA0120D24965
:1032F0004860206A02F062F808B10120ACE7FFF7ED
:10330000DDFECD49896801F0F001F02292FAA2F2C7
:10331000B2FA82F2D140C94A515CC840C84908603B
:103320000F20FEF7B5FB4BE0FFE7A06980B3C24872
:10333000006840F00100C0490860FEF747F9054603
:1033400006E0FEF743F9401B022801D9032083E77A
:10335000B948006800F002000028F2D000BFB6486B
:10336000006840F00800B44908600846006820F092
:10337000F000216A0843B049086000BF0846406871
:1033800020F47F40E16940EA0120AB49486017E042
:10339000FFE7A948006820F00100A7490860FEF790
:1033A00015F9054606E0FEF711F9401B022801D980
:1033B000032051E7A048006800F002000028F2D185
:1033C000207800F00100002868D09B48806800F059
:1033D0000C0008280BD09848806800F00C000C28DE
:1033E0000ED19548C06800F00300032808D1924828
:1033F000006800F4003088B3606878BB01202BE7D8
:1034000000BF6068B0F5803F06D18B48006840F48B
:103410008030894908601AE06068B0F5A02F0BD1B0
:103420008548006840F480208349086008460068A9
:1034300040F4803008600AE07F48006820F4803063
:103440007D4908600846006820F48020086000BFBD
:10345000606890B1FEF7BAF8054607E01EE0FEF797
:10346000B5F8401B642801D90320F5E672480068CE
:1034700000F400300028F2D010E0FEF7A7F805466F
:1034800006E0FEF7A3F8401B642801D90320E3E619
:103490006948006800F400300028F2D1207800F07C
:1034A000020002286AD16448806800F00C000428F9
:1034B0000BD06148806800F00C000C281ED15E48DB
:1034C000C06800F00300022818D15B48006800F4CF
:1034D000806018B1E06808B90120BDE65648406830
:1034E00020F0F8504FF0F85292FAA2F2B2FA82F2BB
:1034F000216991400843504948603FE0E06830B39B
:103500004D48006840F480704B490860FEF75EF853
:10351000054606E0FEF75AF8401B022801D90320B1
:103520009AE64548006800F480600028F2D04248DE
:10353000406820F0F8504FF0F85292FAA2F2B2FA36
:1035400082F22169914008433B49486016E03A48BD
:10355000006820F4807038490860FEF737F80546A7
:1035600006E0FEF733F8401B022801D9032073E67A
:103570003148006800F480600028F2D1207800F023
:103580000800082836D16069D0B12B489430006813
:1035900040F001002849C1F89400FEF717F80546ED
:1035A00006E0FEF713F8401B022801D9032053E67A
:1035B00021489430006800F002000028F1D019E0A2
:1035C0001D489430006820F001001B49C1F89400A8
:1035D000FDF7FCFF054606E0FDF7F8FF401B02285B
:1035E00001D9032038E614489430006800F0020046
:1035F0000028F1D1207800F0040004286FD10026C3
:103600000D48806D00F0805070B900BF0A48806D91
:1036100040F08050084988650846806D00F0805071
:10362000009000BF00BF01260648006800F48070CB
:10363000F8B90448006807E000100240F894000858
:10364000D80000200070004040F480708749086076
:10365000FDF7BCFF054606E0FDF7B8FF401B02285A
:1036600001D90320F8E58148006800F48070002843
:10367000F2D000BFA068012808D17D48006840F062
:1036800001007B499039C1F8900021E0A06805282D
:103690000FD17748006840F0040075499039C1F8AF
:1036A00090000846D0F8900040F00100C1F890006A
:1036B0000EE06F48006820F001006D499039C1F8B4
:1036C00090000846D0F8900020F00400C1F8900067
:1036D00000BFA068A0B1FDF779FF054609E02DE025
:1036E000FDF774FF401B41F28831884201D9032065
:1036F000B2E55F48006800F002000028F0D012E058
:10370000FDF764FF054608E0FDF760FF401B41F24E
:103710008831884201D903209EE55548006800F0B1
:1037200002000028F0D1012E07D151489038806D59
:1037300020F080504E499039886500BFA06AE8B3F8
:103740004B489038806800F00C000C2879D0A06AB3
:10375000022853D146489038006820F080704449D0
:1037600090390860FDF732FF054606E0FDF72EFFB1
:10377000401B022801D903206EE53D4890380068BF
:1037800000F000700028F1D1206B401E0101606B39
:1037900041EA0021A06B000941EA4040E16A084388
:1037A000A18F0122C2EB510140EA41514020005D4E
:1037B000C2EB500041EA40602D4900E053E09039EF
:1037C000C8600846006840F0807008600846C0681D
:1037D00040F08070C860FDF7F9FE054606E0FDF791
:1037E000F5FE401B022801D9032035E5204890381A
:1037F000006800F000700028F1D034E01C489038D8
:10380000006820F080701A49903908600846006806
:1038100000F0006048B90846006800F0005020B988
:103820000846C06820F00300C86011489038C0689E
:10383000104908400E499039C860FDF7C7FE05469B
:1038400007E00EE0FDF7C2FE401B022801D903206D
:1038500002E507489038006800F000700028F1D1B8
:1038600001E00120F8E40020F6E4000000700040D0
:1038700090100240FFFFEEFE70B504460CB9012027
:1038800070BD606A00B900BF0021A16294F85D00BC
:1038900028B9002084F85C00204600F04DF8022092
:1038A00084F85D002068006820F04000216808600E
:1038B000E068B0F5E06F01D9002501E04FF48055D4
:1038C000E068B0F5706F05D0E068B0F5E06F01D04A
:1038D0000021A162206B40B9E068B0F5E06F02D929
:1038E0000221216301E001212163D4E901010843A0
:1038F0002169084361690843218B01F40071084381
:10390000E1690843216A0843A16A08432168086005
:103910000421A06901EA1040616A0843616B084311
:10392000E1680843284321684860002020660120A0
:1039300084F85D000020A3E710B586B00446634913
:10394000206888427ED100BF6148C06C40F004000E
:103950005F49C8640846C06C00F00400009000BFD6
:1039600000BF00BF0846C06C40F00100C8640846B4
:10397000C06C00F00100009000BF00BF00BF08460F
:10398000C06C40F00100C8640846C06C00F0010043
:10399000009000BF00BF00BF0846C06C40F00100AF
:1039A000C8640846C06C00F00100009000BF00BF72
:1039B00000BF0846C06C40F00200C8640846C06CF6
:1039C00000F00200009000BF00BF00BF0846C06CBE
:1039D00040F00400C8640846C06C00F00400009089
:1039E00000BF00BF00BF0846006E40F4805008666C
:1039F0000846006E00F48050009000BF00BF802099
:103A0000019001200290039000200490059001A9EC
:103A10003048FDF7C5FC002280212E48FDF7CCFD83
:103A200020200190022002900390032004900520A2
:103A3000059001A94FF09040FDF7B2FC40200190A5
:103A4000022000E03FE00290002003900320049059
:103A50000520059001A94FF09040FDF7A1FC8020C2
:103A60000190022002900020039003200490052082
:103A7000059001A94FF09040FDF792FC04200190C1
:103A8000012002900390032004900020059001A9DA
:103A90001148FDF785FC012204210F48FDF78CFD3C
:103AA000202001900D4802900020039003200490F4
:103AB0000020059001A90748FDF772FC00220321B0
:103AC0001720FEF716F806B010BD000000300140C8
:103AD00000100240000800480004004800001110D7
:103AE0002DE9FC5F04460D4616461F46DDF8308082
:103AF0004FF0000A0020019081464FF0010B00902A
:103B000000BF94F85C00012802D1022000F02CB91B
:103B1000012084F85C0000BFFDF758FD814694F851
:103B20005DA060680190BAF1010F0BD00198B0F56B
:103B3000827F04D1A06810B9BAF1040F02D002202C
:103B4000009007E10DB106B117B90120009001E125
:103B500094F85D00042802D0052084F85D00002060
:103B600020662664A4F84670A4F84470A563E7872D
:103B7000A787E0642065E068B0F5E06F03D8B4F88B
:103B80004600012806D92068406820F4805021684A
:103B9000486005E02068406840F480502168486033
:103BA0002068006800F04000402805D020680068C8
:103BB00040F0400021680860E068B0F5E06F47D948
:103BC000606810B1E08F012806D128882168C8609C
:103BD000AD1CE08F401EE08732E0BBF1000F10D03B
:103BE000E08F70B12068806800F00200022808D1E0
:103BF00028882168C860AD1CE08F401EE0874FF028
:103C0000000BB4F8460078B12068806800F001002D
:103C100050B12068C0683080B61CB4F84600401E21
:103C2000A4F846004FF0010B08F1010040B1FDF788
:103C3000CDFCA0EB0900404502D30320009089E0B1
:103C4000E08F0028C9D1B4F846000028C5D174E03F
:103C5000606810B1E08F012811D1E08F012807D9E9
:103C600028882168C860AD1CE08F801EE08706E0D0
:103C700015F8010B21680873E08F401EE08755E0BE
:103C8000BBF1000F1BD0E08FC8B12068806800F046
:103C90000200022813D1E08F012807D92888216863
:103CA000C860AD1CE08F801EE08706E015F8010BB0
:103CB00021680873E08F401EE0874FF0000BB4F8D6
:103CC000460038B32068806800F0010010B3B4F8F3
:103CD0004600012813D92068C0683080B61CB4F8AB
:103CE0004600801EA4F84600B4F8460001280FD80C
:103CF0002068406840F480502168486008E02068EF
:103D0000007B06F8010BB4F84600401EA4F84600FC
:103D10004FF0010B08F1010040B1FDF757FCA0EB9B
:103D20000900404502D30320009013E0E08F0028F3
:103D3000A6D1B4F846000028A2D14A464146204602
:103D400001F0A7FC08B120202066206E08B10120F8
:103D5000009000BF012084F85D0000BF002084F8BF
:103D60005C0000BF0098D1E63CBCBDE8C09F70B5C8
:103D700004462546681EB0F1807F01D301200FE084
:103D8000681E4FF0E02148610F214FF0FF3001F035
:103D9000BBF800204FF0E021886107200861002077
:103DA00070BD7047704710B504460CB9012010BDB6
:103DB00094F8390028B9002084F83800204600F033
:103DC0000DF8022084F83900211D206802F0C2F8A5
:103DD000012084F839000020E9E7000038B50446E6
:103DE0001A492068884216D100BF1948806D40F0FA
:103DF0000400174988650846806D00F004000090B3
:103E000000BF00BF00220F211E20FDF772FE1E2002
:103E1000FDF762FE19E00F492068884215D100BF06
:103E20000B48806D40F00800094988650846806DA0
:103E300000F00800009000BF00BF00220F213220D8
:103E4000FDF757FE3220FDF747FE38BD0008004061
:103E500000100240000C004001460868C06840F0B5
:103E600001000A68D0600868006840F001000A6834
:103E7000106000207047704710B504462068006944
:103E8000C0F34000D8B12068C068C0F34000B0B1B2
:103E90006FF00200216808610120207620688069A7
:103EA00000F0030018B12046FFF7E5FF05E02046CB
:103EB00000F0F8F8204600F01BFA00202076206879
:103EC0000069C0F38000D8B12068C068C0F38000EA
:103ED000B0B16FF0040021680861022020762068EC
:103EE000806900F4407018B12046FFF7C4FF05E078
:103EF000204600F0D7F8204600F0FAF9002020769E
:103F000020680069C0F3C000D8B12068C068C0F361
:103F1000C000B0B16FF0080021680861042020766D
:103F20002068C06900F0030018B12046FFF7A3FF26
:103F300005E0204600F0B6F8204600F0D9F9002050
:103F4000207620680069C0F30010D8B12068C068EE
:103F5000C0F30010B0B16FF01000216808610820B4
:103F600020762068C06900F4407018B12046FFF741
:103F700082FF05E0204600F095F8204600F0B8F9F1
:103F8000002020762068006900F0010058B1206808
:103F9000C06800F0010030B16FF0010021680861D5
:103FA000204600F0A7F920680069C0F3C01058B19E
:103FB0002068C068C0F3C01030B16FF08000216885
:103FC00008612046FFF7EDFE20680069C0F380100D
:103FD00058B12068C068C0F3801030B16FF0400065
:103FE00021680861204600F0BBF920680069C0F331
:103FF000401058B12068C068C0F3401030B16FF075
:104000002000216808612046FFF7CCFE10BD70B586
:1040100004460E46154600BF94F83800012801D129
:10402000022070BD012084F8380000BF022084F80F
:1040300039000C2D1AD005DC4DB1042D0CD0082D03
:1040400023D10EE0102D16D0142D1ED118E03146CC
:10405000206801F0EDFF19E03146206802F040F8D9
:1040600014E03146206802F099F80FE031462068EC
:1040700002F0F0F80AE03146206802F029F905E084
:104080003146206802F05EF900E000BF00BF012069
:1040900084F8390000BF002084F8380000BF00BF5A
:1040A000BFE7000070B504460025207E01280DD131
:1040B0000021204600F02AF9054641F288302844C4
:1040C00003490968486301200249086070BD000087
:1040D000080300201400002010B504460CB901208C
:1040E00010BD94F8390028B9002084F83800204623
:1040F00000F00CF8022084F83900211D206801F03E
:1041000029FF012084F839000020E9E738B504468A
:1041100000BF0B48006E40F400600949086608467D
:10412000006E00F40060009000BF00BF0022082174
:104130001B20FDF7DEFC1B20FDF7CEFC38BD000088
:104140000010024030B504460D4635B1042D0BD0A9
:10415000082D10D00C2D1CD114E02068C06840F050
:1041600002002168C86015E02068C06840F00400C3
:104170002168C8600EE02068C06840F0080021682F
:10418000C86007E02068C06840F010002168C8607F
:1041900000E000BF00BF01222946206801F03AFF7D
:1041A0001249206888420FD01149206888420BD0FC
:1041B00010492068884207D00F492068884203D000
:1041C0000E492068884201D1012000E0002028B17A
:1041D0002068406C40F40040216848642068006812
:1041E00040F0010021680860002030BD002C014033
:1041F00000340140004001400044014000480140BB
:1042000030B504460D4635B1042D0BD0082D10D025
:104210000C2D1CD114E02068C06820F00200216839
:10422000C86015E02068C06820F004002168C860FC
:104230000EE02068C06820F008002168C86007E030
:104240002068C06820F010002168C86000E000BF4E
:1042500000BF00222946206801F0DCFE1F492068CB
:1042600088420FD01E49206888420BD01D49206823
:10427000884207D01C492068884203D01B49206827
:10428000884201D1012000E0002090B100BF2068E9
:10429000006A41F21111084050B92068006A891083
:1042A000084028B92068406C20F400402168486428
:1042B00000BF00BF2068006A41F21111084050B9E8
:1042C0002068006A8910084028B92068006820F03A
:1042D00001002168086000BF002030BD002C0140B3
:1042E00000340140004001400044014000480140CA
:1042F0007047000010B504460348844202D12046AE
:10430000FCF7C4FD10BD0000C41D002002460023C0
:1043100000BF92F83800012801D102207047012027
:1043200082F8380000BF31B1042907D0082908D02D
:104330000C290CD108E01068436B09E01068836B0E
:1043400006E01068C36B03E01068036C00E000BF78
:1043500000BF00BF002082F8380000BF1846DDE72C
:10436000704700002DE9F0410446A04608F101061F
:1043700098F80000042801D0BDE8F08130780528C5
:1043800004D03E2805D0FF2832D10FE0FCF792FF81
:104390002EE0B51C2878012806D16F1CB7F8011053
:1043A000781DFCF74DFF00BF00BF21E0B51C288839
:1043B000A0F6014030B1132818D1AF1C788801F065
:1043C0004DF813E00C4890F82D00012806D1AF1CE1
:1043D0003A797888F91DFCF749F906E0AF1C3A797B
:1043E0007888791DFCF742F900BF00BF00BF00BF0D
:1043F00000BF00BFC0E700006C03002010B50B48F1
:1044000004F0E7FC0A4804F0E4FC00240BE0C4EBF1
:10441000C40000EB8000074A02EB8001034804F06F
:10442000ECFC601CC4B2052CF1DB10BDC000002008
:10443000C8000020CC22002038B500200090FCF7F6
:104440005FFD2AE0184804F0E9FC08BB69461648FD
:1044500004F0F5FC802100980830FCF799FBC4B209
:10446000002C10DD009880F88840009800F052F889
:1044700020B90E48009904F0C0FC0CE00A480099ED
:1044800004F0AAFC07E00848009904F0A5FC02E04B
:10449000FCF736FD38BDFCF733FDFCF74DFB00287B
:1044A000D0D100BFF6E70000C0000020C800002007
:1044B00038B500200090FCF712FE104804F0AEFC66
:1044C000044613E069460D4804F0B9FCFCF711FE00
:1044D00000980830FFF746FFFCF701FE08480099F6
:1044E00004F08BFC054804F099FC0446002CE9D04C
:1044F000FFF7A2FFFCF7FDFD38BD0000C80000205B
:10450000C000002010B5024804F088FC10BD000077
:10451000C8000020014601F108021078042801D0EB
:1045200001207047937891F88800C01E834201D023
:104530000220F6E70020F4E7FEB504460D461646D5
:104540001F46642101A801F0E9FF0EE0F8B2F3B2C2
:104550002A46214600900648FCF76EFB00B905E0AC
:1045600001A801F0CDFF00B100E0EFE700BFFEBD04
:10457000E426002000BFFEE701688969C1F340011D
:1045800011B10021026891620168896901F001019D
:1045900029B90168896941F0010102689161704798
:1045A00070B504460D46164620688069C0F30010B9
:1045B000002837D013E0681C88B125B1FDF706F854
:1045C000801BA8420BD9202084F84100002084F8E9
:1045D000420000BF84F8400000BF032070BD206887
:1045E0008069C0F340100028E5D010202168C86120
:1045F00020202168C8612046FFF7BEFF2068406880
:10460000094908402168486004206064202084F83B
:104610004100002084F8420000BF84F8400000BF41
:104620000120DBE70020D9E700E800FE2DE9F84390
:104630000446894615461E46DDE908784FF40050C9
:10464000F2B2002349460090204600F04DF9424660
:104650003946204600F0B6F938B1606C042802D122
:104660000120BDE8F8830320FBE7012E03D1E8B267
:104670002168886213E0C5F30720216888624246FA
:104680003946204600F09EF930B1606C042801D113
:104690000120E6E70320E4E7E8B2216888623B46B0
:1046A000002240212046CDF8008000F035F908B105
:1046B0000320D6E70020D4E72DE9F84304468946D5
:1046C00015461E46DDE908784FF40050F2B2C302E9
:1046D00049460090204600F007F9424639462046F8
:1046E00000F070F938B1606C042802D10120BDE8F7
:1046F000F8830320FBE7012E03D1E8B2216888622A
:1047000013E0C5F3072021688862424639462046F7
:1047100000F058F930B1606C042801D10120E6E7BF
:104720000320E4E7E8B2216888623B46002280214A
:104730002046CDF8008000F0EFF808B10320D6E75E
:104740000020D4E710B504460248FCF745FF00F00E
:1047500003F810BD8825002010B50E48FCF75AFF5D
:1047600078B90D480B4948606A210A4881600121E7
:10477000C1600A480749086000F012F80548FCF7D4
:104780004DFF0448FCF746FF202801D1002010BD52
:104790000120FCE7882500204115801000540040CE
:1047A00000B5A9B0402002908001189002A8FEF741
:1047B00021F900BF2248C06C40F002002049C864C3
:1047C0000846C06C00F00200019000BF00BF4FF42B
:1047D00040702490122025900220279001202690DE
:1047E0000420289024A91748FCF7DAFD00BF1448DC
:1047F000806D40F40010124988650846806D00F411
:104800000010019000BF00BF0846806B40F400100C
:1048100088630846806B20F40010886300221146EC
:104820004820FDF766F94820FDF756F900221146A9
:104830004920FDF75EF94920FDF74EF929B000BD8A
:1048400000100240000400482DE9FE4304460D46D6
:1048500016461F464FF000080B48006801232A4601
:104860002146CDE9006702900848FCF739FF8046F1
:10487000B8F1000F05D02046FFF764FF012000F0DB
:1048800007B80020FBE70000DC000020882500209E
:1048900006BCBDE8F88300002DE9FE4304460D4642
:1048A00016461F464FF000080B48006801232A46B1
:1048B0002146CDE9006702900848FCF7F3FF8046E7
:1048C000B8F1000F05D02046FFF73CFF012000F0B3
:1048D00007B80020FBE70000DC000020882500204E
:1048E00006BCBDE8F8830000F0B50C46059D00212C
:1048F00006687168074E3140C4F309064FF47F071C
:1049000007EA02473E431E432E4331430668716067
:10491000F0BD0000009800FC2DE9F04104460E4671
:1049200017461D46DDF8188015E0681C98B12DB1BA
:10493000FCF74CFEA0EB0800A8420CD9202084F81C
:104940004100002084F8420000BF84F8400000BF0E
:104950000320BDE8F081206880693040B04201D179
:10496000012000E00020B842DFD00020F1E770B560
:1049700004460D4616461DE0324629462046FFF7FE
:104980000FFE08B1012070BD25B1FCF71FFE801B92
:10499000A8420FD9606C40F020006064202084F8A9
:1049A0004100002084F8420000BF84F8400000BFAE
:1049B0000320E8E720688069C0F340100028DBD0BE
:1049C0000020E0E770B504460D4616461FE032466B
:1049D00029462046FFF7E4FD08B1012070BD681CA0
:1049E000A8B125B1FCF7F2FD801BA8420FD9606C7D
:1049F00040F020006064202084F84100002084F80A
:104A0000420000BF84F8400000BF0320E6E72068B2
:104A10008069C0F340000028D9D00020DEE7000004
:104A200030B5C3B004461A480470FDF7ADFF00224C
:104A30001849194802F07BF81849174802F0A1FA02
:104A40001749154801F045FE134802F063FB42F296
:104A50001070FCF77BFC0020FBF794FF30200090E7
:104A6000312310A211A1019003A803F069FA0546B1
:104A7000294603A8FCF74AF934210548FBF7BBFB9C
:104A80000020034981F82C0081F82D0043B030BD8F
:104A90006C03002070000020A0030020F80000201C
:104AA0006000002053544C424C4531000D0A5354D1
:104AB0004D6963726F656C656374726F6E69637361
:104AC0002025733A0D0A0956657273696F6E2025A9
:104AD000632E25632E25630D0A0953656E736F726D
:104AE00054696C650D0A000010B588B01348006861
:104AF00042F21071B0FBF1F0441E114811490860F8
:104B00004FF6FF710F48C160446000210161816070
:104B1000FFF7E2FA08B1FCF791FB30200190022088
:104B2000039041F288300290002201A90548FFF766
:104B30006EFA08B1FCF782FB08B010BDD800002067
:104B4000002C01400803002030B5C1B0FBF782FC07
:104B500004464CB916A101A803F0F2F9054629460E
:104B600001A8FCF7D3F809E01CA101A803F0E8F9BB
:104B70000546294601A8FCF7C9F800BFFBF7E4FB8E
:104B800004464CB91FA101A803F0DAF905462946ED
:104B900001A8FCF7BBF809E025A101A803F0D0F9B2
:104BA0000546294601A8FCF7B1F800BF41B030BD69
:104BB00048572020202020205365727669636520A5
:104BC0005732535420616464656420737563636570
:104BD000737366756C6C790D0A0000000D0A4572DE
:104BE000726F72207768696C6520616464696E67B2
:104BF00020485720536572766963652057325354B5
:104C00000D0A0000436F6E66696720205365727657
:104C1000696365205732535420616464656420736E
:104C200075636365737366756C6C790D0A000000BB
:104C30000D0A4572726F72207768696C6520616435
:104C400064696E6720436F6E66696720536572768C
:104C500069636520573253540D0A000070B5F8B0EF
:104C600036A103C97791769036A103C9439142904A
:104C700036A000684190FBF739FEFFF7BFFBFBF75A
:104C800073FF74A975A803F0E1FE9DF8D4013028E4
:104C900004DD01202E4981F82D0003E000202C497D
:104CA00081F82D00FBF760FF2A4804F029FA054639
:104CB0004DB129A101A803F043F90646314601A8E8
:104CC000FCF724F837E0FBF74FFF44A804F0AEFAF6
:104CD00000240CE044A8025D25A101A803F030F9EE
:104CE0000646314601A8FCF711F8601CC4B2C02C7E
:104CF000F0DB21A101A803F023F90646314601A803
:104D0000FCF704F8FBF730FF20A101A803F018F925
:104D10000646314601A8FBF7F9FF002003F091FD9C
:104D200023A101A803F00CF90646314601A8FBF7C0
:104D3000EDFF00BFFEE778B070BD000053544C4259
:104D40003130300009426C75654E52470234120012
:104D50006C030020369400080D0A50726F67726170
:104D60006D20494652206661696C65640D0A000039
:104D70000925782C000000000D0A566572696679D5
:104D800020494652204F4B0D0A0000000D0A58548E
:104D9000414C20636572746572696E672074657337
:104DA000742073657474696E67210D0A0000000039
:104DB0000D0A5854414C20636572746572696E67C0
:104DC00020746573742073657474696E67204F4B2B
:104DD000210D0A0030B50B46002100BF16E00A2461
:104DE000B4EB107F05D9302404EB107403F81140A4
:104DF00005E0412404EB10740A3C03F81140000163
:104E000000254C00641C1D554C1CE1B29142E6DBB0
:104E100030BD000070B5C2B00446FCF7D7FBC0F34C
:104E2000C7008DF80401FCF7D1FBC00A8DF805011D
:104E30008DF8064141A80323002200901448018800
:104E40001448008803F082FC0546002D1DD012484E
:104E50000088C0F3402058B110A1174803F070F843
:104E60001649086008460178134800F081FF09E000
:104E700013A101A803F064F80646314601A8FBF728
:104E800045FF00BF472042B070BD0020FBE7000097
:104E9000320000202E000020000000204572726FBA
:104EA00072205570646174696E67204C45442043DC
:104EB0006861720D0A000000080200200400002052
:104EC0004572726F72205570646174696E67205408
:104ED000656D7020436861720D0A000010B50020F6
:104EE000FBF79CFD10BD10B50020FBF7B7FD10BD12
:104EF00000BFFEE77047000002480068C0F30220D0
:104F0000704700000CED00E010B5002807DA0A0732
:104F1000140E054A00F00F031B1FD45403E00A07C8
:104F2000130E024A135410BD18ED00E000E400E037
:104F300010B50248FCF7F6FF10BD0000001E00206F
:104F400070B504460D461646324629462046FBF704
:104F500037F970BD70B504460D46164632462946EF
:104F60002046FBF74AF970BD2DE9F84F07460E467B
:104F7000D7F8008000240025A146A246C6EBC60152
:104F800007F13C0000EB8104D4E90501451AA06853
:104F9000A84200D2A568E81CC11700EB91714FEA46
:104FA000A1091AE0D4E90501451AA068A84200D277
:104FB000A568E81CC11700EB91714FEAA109387C84
:104FC000ABB2F2B200904046E16802F09AFFE068AE
:104FD0002844E060A0692844A06108F5106000EB57
:104FE0004610806980B2484506D9D4E90510884248
:104FF00002D260690028D5D1002D0CDC012000FA16
:1050000006FA40F6340050F8080020EA0A0040F69C
:10501000340141F80800002000F000B818BCBDE8D9
:10502000E08F70472DE9F04104460E460027002529
:105030007348C06800F00300C0B17148C06800F058
:105040000300216888420FD1206868B16C48C068AD
:1050500000F07000702191FAA1F1B1FA81F1C8401D
:10506000401C6168884238D0012536E0206801285C
:1050700004D0022809D003281AD10DE06048006846
:1050800000F0020000B9012514E05D48006800F45A
:10509000806000B901250DE05948006800F4003037
:1050A00028B95748006800F4802000B9012501E0C4
:1050B000012500BF00BF85B9D4E90010401E702251
:1050C00092FAA2F2B2FA82F2904008434C49C968BF
:1050D00021F0730108434A49C860002D77D1484840
:1050E000006820F0806046490860FCF76FFA0746C8
:1050F00006E0FCF76BFAC01B022801D9032505E086
:105100003F48006800F000600028F2D100BF002D89
:1051100073D1CEB94FF4FE4191FAA1F1B1FA81F108
:10512000A0688840E16809094FF4003292FAA2F2BF
:10513000B2FA82F29140084331490969314A11407B
:1051400008432F49086138E0012E1BD14FF4FE417E
:1051500091FAA1F1B1FA81F1A06888400122216998
:10516000C2EB51014FF4C00292FAA2F2B2FA82F2FB
:105170009140084322490969234A114008432049C4
:1051800008611AE04FF4FE4191FAA1F1B1FA81F100
:10519000A068884001226169C2EB51014FF0C062F2
:1051A00092FAA2F2B2FA82F29140084314490969D4
:1051B000164A11400843124908611148006840F03E
:1051C00080600F490860FCF701FA074607E014E029
:1051D000FCF7FCF9C01B022801D9032505E00848AB
:1051E000006800F000600028F2D000BF2DB904482C
:1051F0000069A1690843024908612846BDE8F081B9
:1052000000100240FF80FDFFFF809FFFFF80FFF93D
:105210002DE9F04104460E46002700256448C06889
:1052200000F00300C0B16248C06800F003002168CC
:1052300088420FD1206868B15D48C06800F07000F6
:10524000702191FAA1F1B1FA81F1C840401C616866
:10525000884238D0012536E02068012804D0022891
:1052600009D003281AD10DE05148006800F002006F
:1052700000B9012514E04E48006800F4806000B9D0
:1052800001250DE04A48006800F4003028B948487C
:10529000006800F4802000B9012501E0012500BF6D
:1052A00000BF85B9D4E90010401E702292FAA2F224
:1052B000B2FA82F2904008433D49C96821F0730177
:1052C00008433B49C860002D6FD13948006820F081
:1052D000805037490860FCF779F9074606E0FCF78B
:1052E00075F9C01B022801D9032505E03048006884
:1052F00000F000500028F2D100BFE5BBCEB94FF45A
:10530000FE4191FAA1F1B1FA81F1A0688840E1680B
:1053100009094FF4003292FAA2F2B2FA82F29140F5
:10532000084323494969234A1140084320494861F9
:105330001AE04FF4FE4191FAA1F1B1FA81F1A068AF
:10534000884001222169C2EB51014FF0C06292FAFC
:10535000A2F2B2FA82F29140084315494969164A0D
:1053600011400843124948611148006840F08050DC
:105370000F49086000E018E0FCF728F9074606E04E
:10538000FCF724F9C01B022801D9032505E00848D1
:10539000006800F000500028F2D000BF2DB904488A
:1053A000406961690843024948612846BDE8F081C7
:1053B00000100240FF80FDFFFF80FFF9F8B50446B2
:1053C000002600252348806D00F0805018B1FDF7BD
:1053D000E5FA064616E000BF1E48806D40F080509A
:1053E0001C4988650846806D00F08050009000BF21
:1053F00000BFFDF7D3FA06461648806D20F08050B6
:1054000014498865B6F5007F07D1802C10D9A02CEF
:1054100001D902250CE001250AE0802C01D90325E1
:1054200006E0802C01D1022502E0702C00D101257C
:105430000948006820F0070028430749086008462B
:10544000006800F00700A84201D00120F8BD00204C
:10545000FCE7000000100240002002402DE9FC475C
:10546000064683480088401C86427DD10027B84606
:10547000B946BA467F48406930B37E49486901A9B8
:10548000FBF727FB00BB7B4948696946FBF706FB36
:105490009DED000ABDEEC00A10EE104ADDED000AD7
:1054A00000EE104AB8EEC00A30EEC00ADFED720A14
:1054B00020EE200ABDEEC00A10EE105A04EBC40024
:1054C00000EB041005EB80076A48806930B3694936
:1054D000886901A9FBF749FA00BB664988696946F2
:1054E000FBF728FA9DED000ABDEEC00A10EE104A47
:1054F000DDED000A00EE104AB8EEC00A30EEC00A38
:10550000F2EE040A20EE200ABDEEC00A10EE105A98
:1055100004EB840005EB40001FFA80F855488068D2
:10552000022850D15349C86801A9FBF7F9FA10BB0A
:105530005049C8686946FBF7D8FA9DED000ABDEEF0
:10554000C00A10EE104ADDED000A00EE104AB8EE77
:10555000C00A30EEC00AF2EE040A20EE200ABDEEC8
:10556000C00A10EE105A00E05FE004EB840005EB87
:1055700040000FFA80FA3F49086901A9FBF7D0FA09
:1055800000BB3C4908696946FBF7AFFA9DED000A8C
:10559000BDEEC00A10EE104ADDED000A00EE104A22
:1055A000B8EEC00A30EEC00AF2EE040A20EE200A7D
:1055B000BDEEC00A10EE105A04EB840005EB40006B
:1055C0000FFA80F92AE02B488068012826D1294962
:1055D000C86801A9FBF7A4FA00BB2649C868694658
:1055E000FBF783FA9DED000ABDEEC00A10EE104AEB
:1055F000DDED000A00EE104AB8EEC00A30EEC00A37
:10560000F2EE040A20EE200ABDEEC00A10EE105A97
:1056100004EB840005EB40000FFA80FA53464A463B
:1056200041463846FBF76AFD19E014480088401CE3
:10563000864205D10F4991F82C00FFF7EBFB0EE0F5
:105640000F480088401C864202D100F0C9FB06E0EA
:105650000C480088401C864201D100F003FF0A4834
:10566000008818B10848008803F04CF800F00EB824
:10567000300000206C0300200000C84232000020EF
:105680003C0000203A000020420000200CBCBDE895
:10569000F087F8B504460E461546334600224FF40F
:1056A000C0512046009500F026F828B1206E40F049
:1056B000200020660320F8BD3346002280212046CA
:1056C000009500F070F828B1206E40F020002066B0
:1056D0000320F0E7334600224FF4C06120460095D6
:1056E00000F009F828B1206E40F020002066032069
:1056F000E1E70020DFE72DE9F84304460E461746B0
:105700001D46DDF8208047E0B6F5C06F05D127B90A
:105710002068007B00909DF80000681CD8B32DB174
:10572000FBF754FFA0EB0800A84235D3206840687F
:1057300020F0E000216848606068B0F5827F0DD1FC
:10574000A068B0F5004F03D0A068B0F5806F05D118
:105750002068006820F0400021680860A06AB0F569
:10576000005F0DD100BF2068006820F40050216860
:1057700008602068006840F400502168086000BF9D
:10578000012084F85D0000BF002084F85C0000BFA9
:105790000320BDE8F883FFE7206880683040B84206
:1057A000B2D10020F5E72DE9F04104460E46174638
:1057B0001D46DDF818803EE0681CD8B32DB1FBF71C
:1057C00005FFA0EB0800A84235D32068406820F010
:1057D000E000216848606068B0F5827F0DD1A06864
:1057E000B0F5004F03D0A068B0F5806F05D12068F8
:1057F000006820F0400021680860A06AB0F5005FF2
:105800000DD100BF2068006820F4005021680860B6
:105810002068006840F400502168086000BF012043
:1058200084F85D0000BF002084F85C0000BF032006
:10583000BDE8F081FFE7206880683040B04201D1C8
:10584000012000E00020B842B6D10020F0E7704708
:105850002DE9F047C2B0D9480088C0F3002058B104
:10586000D7A1DA4802F06CFBD949086008460178F4
:10587000D64800F0A3FD09E0D1A101A802F060FB29
:105880000446214601A8FBF741FA00BFCB48007847
:1058900000F0010000287DD000260027B146B04668
:1058A000CC484069002844D0CA49486941A9FBF75F
:1058B00010F900283DD1C749486940A9FBF7EEF827
:1058C0009DED400ABDEEC00A10EE104ADDED400A23
:1058D00000EE104AB8EEC00A30EEC00ADFEDBE0A94
:1058E00020EE200ABDEEC00A10EE105A04EBC400F0
:1058F00000EB041005EB8006B0480088C0F30020E0
:1059000060B13246B5A1B14802F01AFBB049086057
:1059100008460178AD4800F051FD0AE03246AFA1DB
:10592000684602F00DFB824651466846FBF7EEF9E9
:1059300000BFA8488069002845D0A649886941A9C8
:10594000FBF713F838BBA349886940A9FAF7F2FFBF
:105950009DED400ABDEEC00A10EE104ADDED400A92
:1059600000EE104AB8EEC00A30EEC00AF2EE040AA9
:1059700020EE200ABDEEC00A10EE105A04EB84009F
:1059800005EB400087B28D480088C0F3002078B155
:105990003A4601E0F4E016E093A18C4802F0D0FA18
:1059A0008B49086008460178884800F007FD0AE046
:1059B0003A468DA1684602F0C3FA824651466846CF
:1059C000FBF7A4F900BF8348806802287DD1814994
:1059D000C86841A9FBF7A4F888BB7E49C86840A9FC
:1059E000FBF783F89DED400ABDEEC00A10EE104AA9
:1059F000DDED400A00EE104AB8EEC00A30EEC00AF3
:105A0000F2EE040A20EE200ABDEEC00A10EE105A93
:105A100004EB840005EB40000FFA80F8674800882B
:105A2000C0F3002060B1424671A1684802F088FAD4
:105A30006749086008460178644800F0BFFC0AE046
:105A400042466BA1684602F07BFA824651466846A0
:105A5000FBF75CF900BF5F49086941A9FBF760F8F3
:105A6000002831D15B49086940A9FBF73EF89DED5C
:105A7000400ABDEEC00A10EE104ADDED400A00EE0D
:105A8000104AB8EEC00A30EEC00AF2EE040A20EE68
:105A9000200ABDEEC00A10EE105A04EB840005EB9C
:105AA00040000FFA80F945480088C0F3002068B133
:105AB0004A4652A1454802F043FA45490860084663
:105AC0000178424800F07AFC53E00AE04A464BA1D4
:105AD000684602F035FA824651466846FBF716F9E9
